{
  "contractName": "SupplyChain",
  "abi": [
    {
      "inputs": [],
      "payable": false,
      "stateMutability": "nonpayable",
      "type": "constructor"
    },
    {
      "anonymous": false,
      "inputs": [
        {
          "indexed": false,
          "internalType": "uint256",
          "name": "sku",
          "type": "uint256"
        }
      ],
      "name": "LogForSale",
      "type": "event"
    },
    {
      "anonymous": false,
      "inputs": [
        {
          "indexed": false,
          "internalType": "uint256",
          "name": "sku",
          "type": "uint256"
        }
      ],
      "name": "LogReceived",
      "type": "event"
    },
    {
      "anonymous": false,
      "inputs": [
        {
          "indexed": false,
          "internalType": "uint256",
          "name": "sku",
          "type": "uint256"
        }
      ],
      "name": "LogShipped",
      "type": "event"
    },
    {
      "anonymous": false,
      "inputs": [
        {
          "indexed": false,
          "internalType": "uint256",
          "name": "sku",
          "type": "uint256"
        }
      ],
      "name": "LogSold",
      "type": "event"
    },
    {
      "constant": true,
      "inputs": [
        {
          "internalType": "uint256",
          "name": "",
          "type": "uint256"
        }
      ],
      "name": "items",
      "outputs": [
        {
          "internalType": "string",
          "name": "name",
          "type": "string"
        },
        {
          "internalType": "uint256",
          "name": "sku",
          "type": "uint256"
        },
        {
          "internalType": "uint256",
          "name": "price",
          "type": "uint256"
        },
        {
          "internalType": "enum SupplyChain.State",
          "name": "state",
          "type": "uint8"
        },
        {
          "internalType": "address payable",
          "name": "seller",
          "type": "address"
        },
        {
          "internalType": "address payable",
          "name": "buyer",
          "type": "address"
        }
      ],
      "payable": false,
      "stateMutability": "view",
      "type": "function"
    },
    {
      "constant": false,
      "inputs": [
        {
          "internalType": "string",
          "name": "_name",
          "type": "string"
        },
        {
          "internalType": "uint256",
          "name": "_price",
          "type": "uint256"
        }
      ],
      "name": "addItem",
      "outputs": [
        {
          "internalType": "bool",
          "name": "",
          "type": "bool"
        }
      ],
      "payable": false,
      "stateMutability": "nonpayable",
      "type": "function"
    },
    {
      "constant": false,
      "inputs": [
        {
          "internalType": "uint256",
          "name": "sku",
          "type": "uint256"
        }
      ],
      "name": "buyItem",
      "outputs": [],
      "payable": true,
      "stateMutability": "payable",
      "type": "function"
    },
    {
      "constant": false,
      "inputs": [
        {
          "internalType": "uint256",
          "name": "sku",
          "type": "uint256"
        }
      ],
      "name": "shipItem",
      "outputs": [],
      "payable": false,
      "stateMutability": "nonpayable",
      "type": "function"
    },
    {
      "constant": false,
      "inputs": [
        {
          "internalType": "uint256",
          "name": "sku",
          "type": "uint256"
        }
      ],
      "name": "receiveItem",
      "outputs": [],
      "payable": false,
      "stateMutability": "nonpayable",
      "type": "function"
    },
    {
      "constant": true,
      "inputs": [
        {
          "internalType": "uint256",
          "name": "_sku",
          "type": "uint256"
        }
      ],
      "name": "fetchItem",
      "outputs": [
        {
          "internalType": "string",
          "name": "name",
          "type": "string"
        },
        {
          "internalType": "uint256",
          "name": "sku",
          "type": "uint256"
        },
        {
          "internalType": "uint256",
          "name": "price",
          "type": "uint256"
        },
        {
          "internalType": "enum SupplyChain.State",
          "name": "state",
          "type": "uint8"
        },
        {
          "internalType": "address",
          "name": "seller",
          "type": "address"
        },
        {
          "internalType": "address",
          "name": "buyer",
          "type": "address"
        }
      ],
      "payable": false,
      "stateMutability": "view",
      "type": "function"
    }
  ],
  "bytecode": "0x608060405234801561001057600080fd5b50336000806101000a81548173ffffffffffffffffffffffffffffffffffffffff021916908373ffffffffffffffffffffffffffffffffffffffff1602179055506000600181905550610e33806100686000396000f3fe6080604052600436106100555760003560e01c806362d6bbdf1461005a578063a26be99914610144578063ad4b9cfb1461017f578063bfb231d2146102bc578063e7fb74c7146103f9578063f61c899a14610427575b600080fd5b34801561006657600080fd5b5061012a6004803603604081101561007d57600080fd5b810190808035906020019064010000000081111561009a57600080fd5b8201836020820111156100ac57600080fd5b803590602001918460018302840111640100000000831117156100ce57600080fd5b91908080601f016020809104026020016040519081016040528093929190818152602001838380828437600081840152601f19601f82011690508083019250505050505050919291929080359060200190929190505050610462565b604051808215151515815260200191505060405180910390f35b34801561015057600080fd5b5061017d6004803603602081101561016757600080fd5b810190808035906020019092919050505061061a565b005b34801561018b57600080fd5b506101b8600480360360208110156101a257600080fd5b8101908080359060200190929190505050610759565b60405180806020018781526020018681526020018560038111156101d857fe5b60ff1681526020018473ffffffffffffffffffffffffffffffffffffffff1673ffffffffffffffffffffffffffffffffffffffff1681526020018373ffffffffffffffffffffffffffffffffffffffff1673ffffffffffffffffffffffffffffffffffffffff168152602001828103825288818151815260200191508051906020019080838360005b8381101561027c578082015181840152602081019050610261565b50505050905090810190601f1680156102a95780820380516001836020036101000a031916815260200191505b5097505050505050505060405180910390f35b3480156102c857600080fd5b506102f5600480360360208110156102df57600080fd5b81019080803590602001909291905050506108f9565b604051808060200187815260200186815260200185600381111561031557fe5b60ff1681526020018473ffffffffffffffffffffffffffffffffffffffff1673ffffffffffffffffffffffffffffffffffffffff1681526020018373ffffffffffffffffffffffffffffffffffffffff1673ffffffffffffffffffffffffffffffffffffffff168152602001828103825288818151815260200191508051906020019080838360005b838110156103b957808201518184015260208101905061039e565b50505050905090810190601f1680156103e65780820380516001836020036101000a031916815260200191505b5097505050505050505060405180910390f35b6104256004803603602081101561040f57600080fd5b8101908080359060200190929190505050610a1a565b005b34801561043357600080fd5b506104606004803603602081101561044a57600080fd5b8101908080359060200190929190505050610c62565b005b60007f4627c48065af2a9648cbecdd4b9da340c00e501243cd49a8a71c30c987e8b7616001546040518082815260200191505060405180910390a16040518060c001604052808481526020016001548152602001838152602001600060038111156104c957fe5b81526020013373ffffffffffffffffffffffffffffffffffffffff168152602001600073ffffffffffffffffffffffffffffffffffffffff168152506002600060015481526020019081526020016000206000820151816000019080519060200190610536929190610d59565b50602082015181600101556040820151816002015560608201518160030160006101000a81548160ff0219169083600381111561056f57fe5b021790555060808201518160030160016101000a81548173ffffffffffffffffffffffffffffffffffffffff021916908373ffffffffffffffffffffffffffffffffffffffff16021790555060a08201518160040160006101000a81548173ffffffffffffffffffffffffffffffffffffffff021916908373ffffffffffffffffffffffffffffffffffffffff16021790555090505060018054016001819055506001905092915050565b8060038081111561062757fe5b6002600083815260200190815260200160002060030160009054906101000a900460ff16600381111561065657fe5b1461066057600080fd5b6002600083815260200190815260200160002060040160009054906101000a900473ffffffffffffffffffffffffffffffffffffffff168073ffffffffffffffffffffffffffffffffffffffff163373ffffffffffffffffffffffffffffffffffffffff16146106cf57600080fd5b60036002600085815260200190815260200160002060030160006101000a81548160ff0219169083600381111561070257fe5b02179055507f5a98827d06afe0e04647b3aed26f1ffb77171ad9ac41603c4ef623a6638798c160026000858152602001908152602001600020600101546040518082815260200191505060405180910390a1505050565b60606000806000806000600260008881526020019081526020016000206000018054600181600116156101000203166002900480601f01602080910402602001604051908101604052809291908181526020018280546001816001161561010002031660029004801561080d5780601f106107e25761010080835404028352916020019161080d565b820191906000526020600020905b8154815290600101906020018083116107f057829003601f168201915b5050505050955060026000888152602001908152602001600020600101549450600260008881526020019081526020016000206002015493506002600088815260200190815260200160002060030160009054906101000a900460ff1692506002600088815260200190815260200160002060030160019054906101000a900473ffffffffffffffffffffffffffffffffffffffff1691506002600088815260200190815260200160002060040160009054906101000a900473ffffffffffffffffffffffffffffffffffffffff16905085858585858595509550955095509550955091939550919395565b6002602052806000526040600020600091509050806000018054600181600116156101000203166002900480601f0160208091040260200160405190810160405280929190818152602001828054600181600116156101000203166002900480156109a55780601f1061097a576101008083540402835291602001916109a5565b820191906000526020600020905b81548152906001019060200180831161098857829003601f168201915b5050505050908060010154908060020154908060030160009054906101000a900460ff16908060030160019054906101000a900473ffffffffffffffffffffffffffffffffffffffff16908060040160009054906101000a900473ffffffffffffffffffffffffffffffffffffffff16905086565b8060006003811115610a2857fe5b6002600083815260200190815260200160002060030160009054906101000a900460ff166003811115610a5757fe5b14610a6157600080fd5b600260008381526020019081526020016000206002015480341015610a8557600080fd5b82336002600086815260200190815260200160002060040160006101000a81548173ffffffffffffffffffffffffffffffffffffffff021916908373ffffffffffffffffffffffffffffffffffffffff1602179055507fe64ca8c671e48636f85f3008c1dd538e36bfa74fb6f2790b56b72fcc33b879ef60026000868152602001908152602001600020600101546040518082815260200191505060405180910390a16002600085815260200190815260200160002060030160019054906101000a900473ffffffffffffffffffffffffffffffffffffffff1673ffffffffffffffffffffffffffffffffffffffff166108fc60026000878152602001908152602001600020600201549081150290604051600060405180830381858888f19350505050158015610bba573d6000803e3d6000fd5b50600060026000838152602001908152602001600020600201549050600081340390506002600084815260200190815260200160002060040160009054906101000a900473ffffffffffffffffffffffffffffffffffffffff1673ffffffffffffffffffffffffffffffffffffffff166108fc829081150290604051600060405180830381858888f19350505050158015610c59573d6000803e3d6000fd5b50505050505050565b6002600082815260200190815260200160002060030160019054906101000a900473ffffffffffffffffffffffffffffffffffffffff168073ffffffffffffffffffffffffffffffffffffffff163373ffffffffffffffffffffffffffffffffffffffff1614610cd157600080fd5b600280600084815260200190815260200160002060030160006101000a81548160ff02191690836003811115610d0357fe5b02179055507feaf695929fec8154f0eafe7248c0e16855eb9ad09e623be92f669e544d53e85660026000848152602001908152602001600020600101546040518082815260200191505060405180910390a15050565b828054600181600116156101000203166002900490600052602060002090601f016020900481019282601f10610d9a57805160ff1916838001178555610dc8565b82800160010185558215610dc8579182015b82811115610dc7578251825591602001919060010190610dac565b5b509050610dd59190610dd9565b5090565b610dfb91905b80821115610df7576000816000905550600101610ddf565b5090565b9056fea265627a7a723158201425d0354d797b52950f04ab1d16e2d6a1cbfe9a294ba5bccb5fff7fae7f612964736f6c634300050c0032",
  "source": "\npragma solidity ^0.5.0;\n\ncontract SupplyChain {\n\n  /* set owner */\n  address owner;\n  \n  \n\n  /* Add a variable called skuCount to track the most recent sku # */\n\n  uint private skuCount; \n\n  /* Add a line that creates a public mapping that maps the SKU (a number) to an Item.\n     Call this mappings items\n  */\n\n  \n  //mapping (address => Item) public buyer;\n\n  /* Add a line that creates an enum called State. This should have 4 states\n    ForSale\n    Sold\n    Shipped\n    Received\n    (declaring them in this order is important for testing)\n  */\n  \n  enum State{ForSale, Sold, Shipped, Received}\n  \n  /*State state;*/\n\n  /* Create a struct named Item.\n    Here, add a name, sku, price, state, seller, and buyer\n    We've left you to figure out what the appropriate types are,\n    if you need help you can ask around :)\n    Be sure to add \"payable\" to addresses that will be handling value transfer\n  */\n\n  struct Item {\n    string name;\n    uint sku;\n    uint price;\n    State state;\n    address payable seller;\n    address payable buyer;\n    \n  }\n\n mapping (uint => Item ) public items;\n\n  /* Create 4 events with the same name as each possible State (see above)\n    Prefix each event with \"Log\" for clarity, so the forSale event will be called \"LogForSale\"\n    Each event should accept one argument, the sku */\n\n    event LogForSale(uint sku);\n    event LogSold(uint sku);\n    event LogShipped(uint sku);\n    event LogReceived(uint sku);\n\n/* Create a modifer that checks if the owner of the contract is msg.sender*/\n\n  modifier verifyOwner() {\n\n    require(owner == msg.sender);\n    _;\n\n  }\n\n  modifier verifyCaller (address _address) { require (msg.sender == _address); _;}\n\n  modifier paidEnough(uint _price) { require(msg.value >= _price); _;}\n  \n  //modifier checkValue(uint256 _sku) {\n    //refund them after pay for item (why it is before, _ checks for logic before func)\n    //_;\n    //uint _price = Item[_sku].price;\n    //uint amountToRefund = msg.value - _price;\n    //Item[_sku].buyer.transfer(amountToRefund); \n  //}\n  \n  modifier checkValue(uint _sku ) {\n      \n      //refund them after pay for item (why it is before, _ checks for logic before func)\n        _;\n        uint _price = items[_sku].price;\n        uint amountToRefund = msg.value - _price;\n        items[_sku].buyer.transfer(amountToRefund);\n    }\n  \n  \n\n  /* For each of the following modifiers, use what you learned about modifiers\n   to give them functionality. For example, the forSale modifier should require\n   that the item with the given sku has the state ForSale. \n   Note that the uninitialized Item.State is 0, which is also the index of the ForSale value,\n   so checking that Item.State == ForSale is not sufficient to check that an Item is for sale.\n   Hint: What item properties will be non-zero when an Item has been added?\n   */\n   \n   /*modifier checkItemState(uint _sku){\n       require(items[_sku].state == State.state);\n       _;\n   }*/\n   \n   \n   modifier forSale(uint sku) {\n    require(items[sku].state == State.ForSale);\n    _;\n  }\n  modifier  hasBeenSold(uint sku) {\n    require(items[sku].state == State.Sold);\n    _;\n  }\n  modifier hasBeenShipped(uint sku) {\n    require(items[sku].state == State.Shipped);\n    _;\n  }\n  modifier hasBeenReceived(uint sku) {\n    require(items[sku].state == State.Received);\n    _;\n  } \n\n\n  constructor() public {\n    /* Here, set the owner as the person who instantiated the contract\n       and set your skuCount to 0. */\n      owner = msg.sender;\n       skuCount = 0;\n  }\n\n  function addItem(string memory _name, uint _price) public returns(bool){\n    emit LogForSale(skuCount);\n    items[skuCount] = Item({name: _name, sku: skuCount, price: _price, state: State.ForSale, seller: msg.sender, buyer: address(0)});\n    skuCount = skuCount + 1;\n    return true;\n  }\n\n  /* Add a keyword so the function can be paid. This function should (1) transfer money\n    to the seller, (2) set the buyer as the person who called this transaction, and (3) set the state\n    to Sold. Be careful, this function should use 3 modifiers to check if the item is for sale,\n    if the buyer paid enough, and check the value after the function is called to make sure the buyer is\n    refunded any excess ether sent. Remember to call the event associated with this function!*/\n\n  function buyItem(uint sku) payable public  forSale(sku) paidEnough(items[sku].price) \n  checkValue(sku) {\n      \n     items[sku].buyer = msg.sender; // (2) set the buyer as the person who called this transaction\n    \n        //Item[sku].buyer = msg.sender; // (2) set the buyer as the person who called this transaction\n        //emit LogSold(uint sku);\n        \n        emit LogSold(items[sku].sku);\n        //Item[sku].seller.transfer(Item[sku].price);  // (1) transfer money to the seller \n        \n        items[sku].seller.transfer(items[sku].price);\n        }\n\n\n  /* Add 2 modifiers to (1) check if the item is sold already, and that (2) the person calling this function\n  is the seller. (3) Change the state of the item to shipped. (4) Remember to call the event associated with this function!*/\n  \n  \n  //function shipItem(uint sku) public /*(1)*/ checkItemState(items[sku].ForSale) verifyOwner() {\n   \n    //Item[sku].State.Shipped;\n    //emit LogShipped(uint, sku); \n\n  //}\n  \n  function shipItem(uint sku)\n      public\n      \n      verifyCaller(items[sku].seller)\n    {\n        items[sku].state = State.Shipped;\n        emit LogShipped(items[sku].sku);\n    }\n\n\n  /* (1) Add 2 modifiers to (1) check if the item is shipped already, and that (2) the person calling this function\n  is the buyer. (3) Change the state of the item to received. (4) Remember to call the event associated with this function!*/\n\n  //function receiveItem(uint sku) public checkItemState(sku) verifyCaller(items[sku].seller)  {\n           //Item[sku].State.Received;\n           //emit LogReceived(uint, sku);\n\n // }\n \n function receiveItem(uint sku)\n      public\n      hasBeenReceived(sku)\n      verifyCaller(items[sku].buyer)\n    {\n        items[sku].state = State.Received;\n        emit LogReceived(items[sku].sku);\n    }\n\n  /* We have these functions completed so we can run tests, just ignore it :) */\n  function fetchItem(uint _sku) public view returns (string memory name, uint sku, uint price, State state, address seller, address buyer) {\n    name = items[_sku].name;\n    sku = items[_sku].sku;\n    price = items[_sku].price;\n    state = /*uint*/ (items[_sku].state);\n    seller = items[_sku].seller;\n    buyer = items[_sku].buyer;\n    return (name, sku, price, state, seller, buyer);\n  }\n\n}\n\n\n\n\n",
  "sourcePath": "/Users/arnoldstockard/Desktop/Consensys/supplychain/contracts/SupplyChainReady3.sol",
  "compiler": {
    "name": "solc",
    "version": "0.5.12+commit.7709ece9.Emscripten.clang"
  },
  "schemaVersion": "3.0.20",
  "updatedAt": "2020-01-07T07:32:09.126Z",
  "devdoc": {
    "methods": {}
  },
  "userdoc": {
    "methods": {}
  }
}